{
  "_format": "hh-sol-artifact-1",
  "contractName": "HogwartsStudentsService",
  "sourceName": "contracts/HogwartsStudentsService.sol",
  "abi": [
    {
      "inputs": [],
      "stateMutability": "payable",
      "type": "constructor"
    },
    {
      "anonymous": false,
      "inputs": [
        {
          "indexed": true,
          "internalType": "address",
          "name": "owner",
          "type": "address"
        },
        {
          "indexed": true,
          "internalType": "address",
          "name": "approved",
          "type": "address"
        },
        {
          "indexed": true,
          "internalType": "uint256",
          "name": "tokenId",
          "type": "uint256"
        }
      ],
      "name": "Approval",
      "type": "event"
    },
    {
      "anonymous": false,
      "inputs": [
        {
          "indexed": true,
          "internalType": "address",
          "name": "owner",
          "type": "address"
        },
        {
          "indexed": true,
          "internalType": "address",
          "name": "operator",
          "type": "address"
        },
        {
          "indexed": false,
          "internalType": "bool",
          "name": "approved",
          "type": "bool"
        }
      ],
      "name": "ApprovalForAll",
      "type": "event"
    },
    {
      "anonymous": false,
      "inputs": [
        {
          "indexed": true,
          "internalType": "address",
          "name": "from",
          "type": "address"
        },
        {
          "indexed": true,
          "internalType": "address",
          "name": "to",
          "type": "address"
        },
        {
          "indexed": true,
          "internalType": "uint256",
          "name": "tokenId",
          "type": "uint256"
        }
      ],
      "name": "Transfer",
      "type": "event"
    },
    {
      "anonymous": false,
      "inputs": [
        {
          "indexed": true,
          "internalType": "address",
          "name": "newcomer",
          "type": "address"
        },
        {
          "indexed": false,
          "internalType": "string",
          "name": "name",
          "type": "string"
        },
        {
          "indexed": false,
          "internalType": "string",
          "name": "faculty",
          "type": "string"
        }
      ],
      "name": "WelcomeToHogwarts",
      "type": "event"
    },
    {
      "inputs": [
        {
          "internalType": "address",
          "name": "",
          "type": "address"
        }
      ],
      "name": "addressesToDomains",
      "outputs": [
        {
          "internalType": "string",
          "name": "",
          "type": "string"
        }
      ],
      "stateMutability": "view",
      "type": "function"
    },
    {
      "inputs": [
        {
          "internalType": "string",
          "name": "name",
          "type": "string"
        },
        {
          "internalType": "string",
          "name": "patronus",
          "type": "string"
        },
        {
          "internalType": "uint256",
          "name": "nonce",
          "type": "uint256"
        }
      ],
      "name": "applyToHogwarts",
      "outputs": [],
      "stateMutability": "payable",
      "type": "function"
    },
    {
      "inputs": [
        {
          "internalType": "address",
          "name": "to",
          "type": "address"
        },
        {
          "internalType": "uint256",
          "name": "tokenId",
          "type": "uint256"
        }
      ],
      "name": "approve",
      "outputs": [],
      "stateMutability": "nonpayable",
      "type": "function"
    },
    {
      "inputs": [
        {
          "internalType": "address",
          "name": "owner",
          "type": "address"
        }
      ],
      "name": "balanceOf",
      "outputs": [
        {
          "internalType": "uint256",
          "name": "",
          "type": "uint256"
        }
      ],
      "stateMutability": "view",
      "type": "function"
    },
    {
      "inputs": [
        {
          "internalType": "address",
          "name": "",
          "type": "address"
        }
      ],
      "name": "domainTracker",
      "outputs": [
        {
          "internalType": "bool",
          "name": "",
          "type": "bool"
        }
      ],
      "stateMutability": "view",
      "type": "function"
    },
    {
      "inputs": [
        {
          "internalType": "string",
          "name": "",
          "type": "string"
        }
      ],
      "name": "domains",
      "outputs": [
        {
          "internalType": "address",
          "name": "",
          "type": "address"
        }
      ],
      "stateMutability": "view",
      "type": "function"
    },
    {
      "inputs": [
        {
          "internalType": "string",
          "name": "name",
          "type": "string"
        }
      ],
      "name": "getAddress",
      "outputs": [
        {
          "internalType": "address",
          "name": "",
          "type": "address"
        }
      ],
      "stateMutability": "view",
      "type": "function"
    },
    {
      "inputs": [],
      "name": "getAllNames",
      "outputs": [
        {
          "internalType": "string[]",
          "name": "",
          "type": "string[]"
        }
      ],
      "stateMutability": "view",
      "type": "function"
    },
    {
      "inputs": [
        {
          "internalType": "uint256",
          "name": "tokenId",
          "type": "uint256"
        }
      ],
      "name": "getApproved",
      "outputs": [
        {
          "internalType": "address",
          "name": "",
          "type": "address"
        }
      ],
      "stateMutability": "view",
      "type": "function"
    },
    {
      "inputs": [
        {
          "internalType": "string",
          "name": "name",
          "type": "string"
        }
      ],
      "name": "getRecord",
      "outputs": [
        {
          "components": [
            {
              "internalType": "string",
              "name": "domain",
              "type": "string"
            },
            {
              "internalType": "uint256",
              "name": "applicationDate",
              "type": "uint256"
            },
            {
              "internalType": "string",
              "name": "faculty",
              "type": "string"
            },
            {
              "internalType": "string",
              "name": "patronus",
              "type": "string"
            },
            {
              "internalType": "address",
              "name": "applicant",
              "type": "address"
            }
          ],
          "internalType": "struct HogwartsStudentsService.HogwartsStudent",
          "name": "",
          "type": "tuple"
        }
      ],
      "stateMutability": "view",
      "type": "function"
    },
    {
      "inputs": [],
      "name": "getRecordBySender",
      "outputs": [
        {
          "components": [
            {
              "internalType": "string",
              "name": "domain",
              "type": "string"
            },
            {
              "internalType": "uint256",
              "name": "applicationDate",
              "type": "uint256"
            },
            {
              "internalType": "string",
              "name": "faculty",
              "type": "string"
            },
            {
              "internalType": "string",
              "name": "patronus",
              "type": "string"
            },
            {
              "internalType": "address",
              "name": "applicant",
              "type": "address"
            }
          ],
          "internalType": "struct HogwartsStudentsService.HogwartsStudent",
          "name": "",
          "type": "tuple"
        }
      ],
      "stateMutability": "view",
      "type": "function"
    },
    {
      "inputs": [],
      "name": "gryffindorColor",
      "outputs": [
        {
          "internalType": "string",
          "name": "",
          "type": "string"
        }
      ],
      "stateMutability": "view",
      "type": "function"
    },
    {
      "inputs": [],
      "name": "gryffindorSld",
      "outputs": [
        {
          "internalType": "string",
          "name": "",
          "type": "string"
        }
      ],
      "stateMutability": "view",
      "type": "function"
    },
    {
      "inputs": [],
      "name": "hufflepuffColor",
      "outputs": [
        {
          "internalType": "string",
          "name": "",
          "type": "string"
        }
      ],
      "stateMutability": "view",
      "type": "function"
    },
    {
      "inputs": [],
      "name": "hufflepuffSld",
      "outputs": [
        {
          "internalType": "string",
          "name": "",
          "type": "string"
        }
      ],
      "stateMutability": "view",
      "type": "function"
    },
    {
      "inputs": [
        {
          "internalType": "address",
          "name": "owner",
          "type": "address"
        },
        {
          "internalType": "address",
          "name": "operator",
          "type": "address"
        }
      ],
      "name": "isApprovedForAll",
      "outputs": [
        {
          "internalType": "bool",
          "name": "",
          "type": "bool"
        }
      ],
      "stateMutability": "view",
      "type": "function"
    },
    {
      "inputs": [],
      "name": "isOwner",
      "outputs": [
        {
          "internalType": "bool",
          "name": "",
          "type": "bool"
        }
      ],
      "stateMutability": "view",
      "type": "function"
    },
    {
      "inputs": [],
      "name": "name",
      "outputs": [
        {
          "internalType": "string",
          "name": "",
          "type": "string"
        }
      ],
      "stateMutability": "view",
      "type": "function"
    },
    {
      "inputs": [
        {
          "internalType": "uint256",
          "name": "",
          "type": "uint256"
        }
      ],
      "name": "names",
      "outputs": [
        {
          "internalType": "string",
          "name": "",
          "type": "string"
        }
      ],
      "stateMutability": "view",
      "type": "function"
    },
    {
      "inputs": [
        {
          "internalType": "uint256",
          "name": "tokenId",
          "type": "uint256"
        }
      ],
      "name": "ownerOf",
      "outputs": [
        {
          "internalType": "address",
          "name": "",
          "type": "address"
        }
      ],
      "stateMutability": "view",
      "type": "function"
    },
    {
      "inputs": [],
      "name": "ravenclawColor",
      "outputs": [
        {
          "internalType": "string",
          "name": "",
          "type": "string"
        }
      ],
      "stateMutability": "view",
      "type": "function"
    },
    {
      "inputs": [],
      "name": "ravenclawSld",
      "outputs": [
        {
          "internalType": "string",
          "name": "",
          "type": "string"
        }
      ],
      "stateMutability": "view",
      "type": "function"
    },
    {
      "inputs": [
        {
          "internalType": "string",
          "name": "",
          "type": "string"
        }
      ],
      "name": "records",
      "outputs": [
        {
          "internalType": "string",
          "name": "domain",
          "type": "string"
        },
        {
          "internalType": "uint256",
          "name": "applicationDate",
          "type": "uint256"
        },
        {
          "internalType": "string",
          "name": "faculty",
          "type": "string"
        },
        {
          "internalType": "string",
          "name": "patronus",
          "type": "string"
        },
        {
          "internalType": "address",
          "name": "applicant",
          "type": "address"
        }
      ],
      "stateMutability": "view",
      "type": "function"
    },
    {
      "inputs": [
        {
          "internalType": "address",
          "name": "from",
          "type": "address"
        },
        {
          "internalType": "address",
          "name": "to",
          "type": "address"
        },
        {
          "internalType": "uint256",
          "name": "tokenId",
          "type": "uint256"
        }
      ],
      "name": "safeTransferFrom",
      "outputs": [],
      "stateMutability": "nonpayable",
      "type": "function"
    },
    {
      "inputs": [
        {
          "internalType": "address",
          "name": "from",
          "type": "address"
        },
        {
          "internalType": "address",
          "name": "to",
          "type": "address"
        },
        {
          "internalType": "uint256",
          "name": "tokenId",
          "type": "uint256"
        },
        {
          "internalType": "bytes",
          "name": "data",
          "type": "bytes"
        }
      ],
      "name": "safeTransferFrom",
      "outputs": [],
      "stateMutability": "nonpayable",
      "type": "function"
    },
    {
      "inputs": [
        {
          "internalType": "address",
          "name": "operator",
          "type": "address"
        },
        {
          "internalType": "bool",
          "name": "approved",
          "type": "bool"
        }
      ],
      "name": "setApprovalForAll",
      "outputs": [],
      "stateMutability": "nonpayable",
      "type": "function"
    },
    {
      "inputs": [],
      "name": "slytherinColor",
      "outputs": [
        {
          "internalType": "string",
          "name": "",
          "type": "string"
        }
      ],
      "stateMutability": "view",
      "type": "function"
    },
    {
      "inputs": [],
      "name": "slytherinSld",
      "outputs": [
        {
          "internalType": "string",
          "name": "",
          "type": "string"
        }
      ],
      "stateMutability": "view",
      "type": "function"
    },
    {
      "inputs": [
        {
          "internalType": "bytes4",
          "name": "interfaceId",
          "type": "bytes4"
        }
      ],
      "name": "supportsInterface",
      "outputs": [
        {
          "internalType": "bool",
          "name": "",
          "type": "bool"
        }
      ],
      "stateMutability": "view",
      "type": "function"
    },
    {
      "inputs": [],
      "name": "symbol",
      "outputs": [
        {
          "internalType": "string",
          "name": "",
          "type": "string"
        }
      ],
      "stateMutability": "view",
      "type": "function"
    },
    {
      "inputs": [],
      "name": "tld",
      "outputs": [
        {
          "internalType": "string",
          "name": "",
          "type": "string"
        }
      ],
      "stateMutability": "view",
      "type": "function"
    },
    {
      "inputs": [
        {
          "internalType": "uint256",
          "name": "tokenId",
          "type": "uint256"
        }
      ],
      "name": "tokenURI",
      "outputs": [
        {
          "internalType": "string",
          "name": "",
          "type": "string"
        }
      ],
      "stateMutability": "view",
      "type": "function"
    },
    {
      "inputs": [
        {
          "internalType": "address",
          "name": "from",
          "type": "address"
        },
        {
          "internalType": "address",
          "name": "to",
          "type": "address"
        },
        {
          "internalType": "uint256",
          "name": "tokenId",
          "type": "uint256"
        }
      ],
      "name": "transferFrom",
      "outputs": [],
      "stateMutability": "nonpayable",
      "type": "function"
    },
    {
      "inputs": [
        {
          "internalType": "string",
          "name": "name",
          "type": "string"
        }
      ],
      "name": "valid",
      "outputs": [
        {
          "internalType": "bool",
          "name": "",
          "type": "bool"
        }
      ],
      "stateMutability": "pure",
      "type": "function"
    },
    {
      "inputs": [],
      "name": "withdraw",
      "outputs": [],
      "stateMutability": "nonpayable",
      "type": "function"
    }
  ],
  "bytecode": "0x601960808181527f486f6777617274732053747564656e747320536572766963650000000000000060a0526101006040908152600360c08181526248535360e81b60e05291939260209290916001600160401b036000958062000063885462001648565b95601f9687811162001618575b508790878311600114620015b1578992620015a5575b50508160011b9160001990851b1c19161786555b82519081116200159157600192620000b3845462001648565b85811162001556575b508590858311600114620014e057600080516020620042b4833981519152939291889183620014d4575b505060001982841b1c191690841b1783555b6200010560085462001648565b848111620014b0575b5061017d600855600886527f696474683d2232373022206865696768743d22323730222066696c6c3d22000060058688207f3c73766720786d6c6e733d22687474703a2f2f7777772e77332e6f72672f323081557f30302f737667222077696474683d2232373022206865696768743d2232373022868201557f2066696c6c3d226e6f6e65223e3c6720636c69702d706174683d2275726c282360028201557f636c6970305f325f3429223e3c726563742077696474683d2232373022206865848201557f696768743d22323730222066696c6c3d227768697465222f3e3c726563742077600482015501556200020760095462001648565b8481116200148c575b50611e61600955600986527f353722206865696768743d223436222066696c6c3d2275726c28237061747465858720937f222f3e3c7265637420783d223131332220793d22313237222077696474683d2285558401557f726e3029222f3e3c7265637420783d2239392220793d2239372220776964746860028401558201557f7465726e3129222f3e3c2f673e3c646566733e3c7061747465726e2069643d2260048201557f7061747465726e3022207061747465726e436f6e74656e74556e6974733d226f60058201557f626a656374426f756e64696e67426f78222077696474683d223122206865696760068201557f68743d2231223e3c75736520687265663d2223696d616765305f325f3422207460078201557f72616e73666f726d3d227472616e736c61746528302e3039363439313229207360088201557f63616c6528302e303038343036343320302e3031303431363729222f3e3c2f7060098201557f61747465726e3e3c7061747465726e2069643d227061747465726e3122207061600a8201557f747465726e436f6e74656e74556e6974733d226f626a656374426f756e64696e600b8201557f67426f78222077696474683d223122206865696768743d2231223e3c75736520600c8201557f687265663d2223696d616765315f325f3422207472616e73666f726d3d227472600d8201557f616e736c61746528302e3035353535353629207363616c6528302e3030393235600e8201557f39323620302e3031303431363729222f3e3c2f7061747465726e3e3c636c6970600f8201557f506174682069643d22636c6970305f325f34223e3c726563742077696474683d60108201557f2232373022206865696768743d22323730222066696c6c3d227768697465222f60118201557f3e3c2f636c6970506174683e3c696d6167652069643d22696d616765305f325f60128201557f34222077696474683d22393622206865696768743d2239362220687265663d2260138201557f646174613a696d6167652f706e673b6261736536342c6956424f5277304b476760148201557f6f414141414e5355684555674141414741414141426743415941414144696d4860158201557f633441414141426d4a4c523051412f77442f41502b677661655441414144714560168201557f6c45515652346e4f32644f576756555252417a3854454451565255515242493160178201557f6a45526b456842446455304d4a57454a743042745465306c305443777333424760188201557f3073465255734241556c6c59697068494346416130535538576654534a69484960198201557f75586a7a484f2f374f2b643265354232373159656265637964764a752b395078601a8201557f3855463351417a34467859415a34425777587a61684364414931774638515532601b8201557f6754724e4f4a75656f5879712f4853376e55796b2b596642387a48436b576943601c8201557f4c664237354c4a56686d6f737233675764434f5a61574f504a727742615a4e4d601d8201557f764a54754162306553505935716c5a49544b4630546c43364c79425648356771601e8201557f68385156532b49437066454a5576694d6f58524f554c6f76494655666d437148828201557f784274684b3868717679486645516c532f4b454370666c416c55766968684464838201557f676a6c316f316d4b4a3541315a6b65624b574c413957457279517a2f3073543660218201557f594e2b4a38774a3739646e71794b36462b414d453462304a726c775170414b3760228201557f437977576531694d6649744146565952746d542f34766f76325832797a61484f60238201557f6465654f4a73463477536939796d58327a697a4770476a62423768444b48446660248201557f6b362f6b636b3632476e48684d75697967717475543777464f48645251536d2f60258201557f4c484d4973315367506979502b4a75542f556f396b4533446a77474e6a6f727060268201557f54696f577534677168385156532b51355944657a455332346733357176386c5060278201557f5141302f77564f6b4c343071484b7a34674c4a48393056506b7055666d43564560288201557f4b2b79356d397063412b34436a6d36575539734748757336397a38525a34417860298201557f77417a6955387a775277424268496b32795a57417630417050596d53496f354a602a8201557f5876676862674c4f4837624c4b4d456171337a4272494f7377536f4376783832602b8201557f4f58672f70797a57466746426e3550724462666f6e355a416c7741374e785355602c8201557f722b4a4c444d6471463570415034674a7a346570793058576765366562666151602d8201557f4b704f472b37304c7978436e69457650684b796a384944434d76766e4c794677602e8201557f505867566e6b786676415262766c356f74323442337930756648667173564f79602f8201557f4471377568755942446f7370684c4567354a4a32436231634154354b2f30527460308201557f467672335235756f417679457475466b505771686645777a785a354f5647327960318201557f796d4c446b513552547959715047744355486f6e7843586d7a552b477a4a675460328201557f4f436e6f4c616e5765526e464870424e49533149416933646a65537965516c7160338201557f414739446e50496a6d7670524f777852586b782f6577474b506b632f2b586b5a60348201557f66634c436f784433514e656446424d59315a643634456552794f7a6c69744f4960358201557f663049532b3948763155394b75695635475858774d32325334307a306a66453460368201557f37624c7a482f534458686e6f7669696b49766275562f7848784452706d48717960378201557f624d6f443936325241585430656e6e56565451447a674a76626b763643696a3560388201557f7878734e57455957434e777a6f4b6a516663496a763573356a4e58306f4d736d60398201557f7a434a6365356c775950754530362b51506f65396c53345146335343612f426d603a8201557f78326e334c35534e714545784c4a6c685550754574302b66646c30697733555a603b8201557f7377524d5a764a56662b457461454838414f7365777151677677674f41473941603c8201557f6a6d56536b387a464c69494f5a31417633414d64474d46455652464557515036603d8201557f777566744f6569446e744141414141456c46546b5375516d4343222f3e3c696d603e8201557f6167652069643d22696d616765315f325f34222077696474683d223936222068603f8201557f65696768743d2239362220687265663d22646174613a696d6167652f706e673b858201557f6261736536342c6956424f5277304b47676f414141414e53556845556741414160418201557f4741414141426743415941414144696d48633441414141426d4a4c523051412f60428201557f77442f41502b67766165544141414556306c45515652346e4f3264535973565360438201557f5243415032326e7355456432745a78785630504b71346736726a67306e72314960448201557f6a4e6531482f67306173694b4d35683844427a6d463867714f4464425556515060458201557f41796f7543414b436f4a4c69394274747a497933646f653468574939764b364b60468201557f6a4d6a71696f2b4342343072374d694d696f694d794f7a366f486a4f49376a4f60478201557f49376a4f45353439674e766763464138674634414a7742566961306f39524d4260488201557f3834527a676d5a6641622b426c72546d564a75516b64444a6c64784a7a524e7260498201557f476a344b365552565342304e4177414b354a6155414861675838493534512f30604a8201557f36706648554a46772f3355696c654a454e48516d317a72436c49304368616c56604b8201557f7a6b2f34375556694d427562515847516855647345746267624a544e4157396f604c8201557f356f33566a4b4f5574774a36354e726e5a4d57625157473443627769574b352f604d8201557f466d6a4861634152534c686b6f4b2b6c535376452f34443268543072527a7a79604e8201557f423846705a694f577038742f467267663073784861327941306f524164613551604f8201557f2f345539426d596c6c376c366a415a7166455857512f7354363731474c47636760508201557f6a5a52664a316966687977374941692b54396a62344132617373566970636b7a60518201557f4a656e72555a41433741685546756d5a304e57486241614759524459486f637360528201557f4f714145506b2f5978643237545372574567486441427241375958464b734f3260538201557f4279345064506a6744574b464f43385042324141345233674e6e79744d55554660548201557f444c2f5a30794d314735684c447067533652325455394872544346346757343460558201557f655466684861556c6a33453658797a35576c724b53686d6e68345037496a596660568201557f6937713541447763574245577044547a62465330434477504a6b314a5751646360578201557f54732f4531506c615573704b4e55383356525a6f6f344f38484667474636514a60588201557f67583536656b686d452b617a732f457a4f6c704b336443366a714e6d5848414860598201557f654141634a65304b636873655671446d4157346b635245464668495152765265605a8201557f564c487848545567674f304e6b6f366c6135726a6c416e344d59714a73725432605b8201557f68455138675463574446526e745a32774272436e59444c672f6f346f4f304137605c8201557f59317939645054645866414170544c30396f4f434830434c672b713677464e42605d8201557f3877483569706550364f324474424f50786b375565794843516d764e524e3530605e8201557f65704b354f5636366a4f51426833416265416538504162655a586934754d6974605f8201557f54734232655064444778463776595a6b61345669396649437a3975417265515260608201557f32623756545561685137674948414236454e6e64527454656f487a445276565660618201557f39415a72634476794a74724e537161576a4b416c46422b512b6d4e76644f415560628201557f30425845387057586271416b306747694534726341546f546d52636d6151504f60638201557f4562456a5a366c794f784132314472386868596e724f506836555465472f417560648201557f4c4a4944774558654d756f3571776d7476514353334c3039772f45654e56385860658201557f655473614a33627a454b73422f6935696538355039494e54423370433833555160668201557f5034506f3073744758586c334977444c676451704b3445655435354b5434447960678201557f694d39774f49632f54306b6e636a5052326b625652627049304b31647a58773160688201557f4942783175554a7343706e4834394b473341432b476a41554776794554694f5060698201557f4a55666e562b41502f43613047436a443034332b69513562634268344472314b606a8201557f3064664177355273506757636b64734a7241504762433359576a544968447667606b8201557f42764974507769556f5975544b77747958484976752f32686d796a6646755362606c8201557f35414f763446452b43506b3767394b4c41634d5254747943476f465571374e50606d8201557f68636d31754e377570484f66666a4e35374f475245665438497a4a7742786b45606e8201557f4a754e524d6f4d5946626a622b3349527442454a4e2f2b424578435676465a6a606f8201557f656f393841565a712f516a5438423851736f6f33636950784c3147306b59586360708201557f754c684c6641536d624d376a754d346a754d346a754d6b347975514732742b3560718201557f696d54536741414141424a52553545726b4a6767673d3d222f3e3c2f6465667360728201557f3e3c7465787420783d223530252220793d223830252220646f6d696e616e742d60738201557f626173656c696e653d226d6964646c652220746578742d616e63686f723d226d60748201557f6964646c652220666f6e742d73697a653d223135222066696c6c3d22626c616360758201557f6b2220666f6e742d66616d696c793d22506c7573204a616b617274612053616e60768201557f732c44656a6156752053616e732c4e6f746f20436f6c6f7220456d6f6a692c4160778201557f70706c6520436f6c6f7220456d6f6a692c73616e732d73657269662220666f6e607882015560796f3a16bbb2b4b3b43a1e913137b632111f60811b91015562001410600a5462001648565b918183116200146a575b7f3c2f746578743e3c2f7376673e0000000000000000000000000000000000001a600a5566038d7ea4c68000600b55600c80546001600160a01b031916331790558451612c1590816200169f8239f35b83600a62001482955220910160051c81019062001685565b388080806200141a565b60098752858720620014a991860160051c810190607a0162001685565b3862000210565b60088752858720620014cd91860160051c81019060060162001685565b386200010e565b015190503880620000e6565b92918491601f19821690838a52888a20918a5b8a8282106200153f5750509583600080516020620042b4833981519152971062001526575b505050811b018355620000f8565b015160001983861b60f8161c1916905538808062001518565b8389015185558996909401939283019201620014f3565b62001580908589528789208780860160051c8201928a871062001587575b0160051c019062001685565b38620000bc565b9250819262001574565b634e487b7160e01b86526041600452602486fd5b01519050388062000086565b898052888a209250601f1984168a5b8a82821062001601575050908460019594939210620015e8575b505050811b0186556200009a565b015160001983871b60f8161c19169055388080620015da565b6001859682939686015181550195019301620015c0565b62001641908a8052898b208980860160051c8201928c871062001587570160051c019062001685565b3862000070565b90600182811c921680156200167a575b60208310146200166457565b634e487b7160e01b600052602260045260246000fd5b91607f169162001658565b81811062001691575050565b600081556001016200168556fe60806040526004361015610013575b600080fd5b60003560e01c806301ffc9a7146102cf57806306fdde03146102c6578063081812fc146102bd57806308b13a1d146102b4578063095ea7b3146102ab5780630b912301146102a257806311dd88451461029957806323b872dd1461029057806326449235146102875780632d5514321461027e5780633ccfd60b1461027557806342842e0e1461026c5780634622ab0314610263578063541e771d1461025a5780636352211e146102515780636532b17f1461024857806368bd026c1461023f57806370a082311461023657806373eea2111461022d5780637618af7214610224578063791372751461021b5780637ddd5dd8146102125780638f32d59b1461020957806395d89b41146102005780639791c097146101f7578063a22cb465146101ee578063abe50fa6146101e5578063b5140057146101dc578063b88d4fde146101d3578063bf40fac1146101ca578063c87b56dd146101c1578063d3cbcfea146101b8578063e985e9c5146101af578063fa626f6b146101a65763fb825e5f1461019e57600080fd5b61000e6116cb565b5061000e61164c565b5061000e6115c8565b5061000e6115ab565b5061000e611515565b5061000e6114e8565b5061000e611488565b5061000e61146b565b5061000e611408565b5061000e61131f565b5061000e6112fb565b5061000e611275565b5061000e61124c565b5061000e61122f565b5061000e6111ed565b5061000e61118f565b5061000e611172565b5061000e6110ab565b5061000e610d22565b5061000e610cd9565b5061000e610cba565b5061000e610c09565b5061000e610bdc565b5061000e610ad5565b5061000e610a57565b5061000e610a3a565b5061000e6109d1565b5061000e6108d2565b5061000e610809565b5061000e610725565b5061000e61062b565b5061000e6105ce565b5061000e610477565b5061000e6103b5565b5061000e6102ea565b6001600160e01b031981160361000e57565b503461000e57602036600319011261000e57602060043561030a816102d8565b63ffffffff60e01b166380ac58cd60e01b8114908115610348575b8115610337575b506040519015158152f35b6301ffc9a760e01b1490503861032c565b635b5e139f60e01b81149150610325565b60005b83811061036c5750506000910152565b818101518382015260200161035c565b9060209161039581518092818552858086019101610359565b601f01601f1916010190565b9060206103b292818152019061037c565b90565b503461000e57600080600319360112610474576040518180546103d781610afe565b8084529060019081811690811561044c5750600114610411575b61040d846104018188038261051d565b604051918291826103a1565b0390f35b93508180526020938483205b828410610439575050508161040d9361040192820101936103f1565b805485850187015292850192810161041d565b61040d96506104019450602092508593915060ff191682840152151560051b820101936103f1565b80fd5b503461000e57602036600319011261000e576020610496600435611858565b6040516001600160a01b039091168152f35b50634e487b7160e01b600052604160045260246000fd5b60a081019081106001600160401b038211176104da57604052565b6104e26104a8565b604052565b604081019081106001600160401b038211176104da57604052565b602081019081106001600160401b038211176104da57604052565b90601f801991011681019081106001600160401b038211176104da57604052565b6040519061054b826104bf565b565b6020906001600160401b03811161056a575b601f01601f19160190565b6105726104a8565b61055f565b60405190602082018281106001600160401b0382111761059b575b60405260008252565b6105a36104a8565b610592565b604051906105b5826104e7565b600a825269343ab3333632b83ab33360b11b6020830152565b503461000e57600036600319011261000e5761040d6105eb6105a8565b60405191829160208352602083019061037c565b600435906001600160a01b038216820361000e57565b602435906001600160a01b038216820361000e57565b503461000e57604036600319011261000e576106456105ff565b602435610651816117c3565b916001600160a01b0380841690821681146106b3576106839361067e913314908115610685575b506117e6565b611c86565b005b6001600160a01b0316600090815260056020908152604080832033845290915290205460ff16905038610678565b60405162461bcd60e51b815260206004820152602160248201527f4552433732313a20617070726f76616c20746f2063757272656e74206f776e656044820152603960f91b6064820152608490fd5b6040519061070f826104e7565b60078252662338434646423360c81b6020830152565b503461000e57600036600319011261000e5761040d6105eb610702565b9181601f8401121561000e578235916001600160401b03831161000e576020838186019501011161000e57565b602060031982011261000e57600435906001600160401b03821161000e5761079991600401610742565b9091565b6020815260a06107f66107bb845183602086015260c085019061037c565b602085015160408501526107e1604086015191601f19928387830301606088015261037c565b9060608601519085830301608086015261037c565b926080600180841b039101511691015290565b503461000e5761040d602061081d3661076f565b9190610827612913565b508260405193849283378101600f81520301902060405190610848826104bf565b61085181610b38565b82526001810154602083015261086960028201610b38565b604083015261087a60038201610b38565b6060830152600401546001600160a01b031660808201526040519182918261079d565b606090600319011261000e576001600160a01b0390600435828116810361000e5791602435908116810361000e579060443590565b503461000e576106836108e43661089d565b916108f76108f2843361199c565b611896565b611afc565b9291926109088261054d565b91610916604051938461051d565b82948184528183011161000e578281602093846000960137010152565b602060031982011261000e57600435906001600160401b03821161000e578060238301121561000e578160246103b2936004013591016108fc565b9061098160209282815194859201610359565b0190565b602061099e918160405193828580945193849201610359565b8101600f81520301902090565b60206109c4918160405193828580945193849201610359565b8101600d81520301902090565b503461000e5760206109e236610933565b816109f66040519283815193849201610359565b600d90820190815281900382019020546040516001600160a01b039091168152f35b60405190610a25826104e7565b600682526568677772747360d01b6020830152565b503461000e57600036600319011261000e5761040d6105eb610a18565b503461000e5760008060031936011261047457600c546001600160a01b03163303610474578080808047335af1610a8c611d5b565b5015610a955780f35b60405162461bcd60e51b81526020600482015260186024820152774661696c656420746f207769746864726177204d6174696360401b6044820152606490fd5b503461000e57610683610ae73661089d565b9060405192610af584610502565b600084526118f9565b90600182811c92168015610b2e575b6020831014610b1857565b634e487b7160e01b600052602260045260246000fd5b91607f1691610b0d565b9060405191826000825492610b4c84610afe565b908184526001948581169081600014610bb95750600114610b76575b505061054b9250038361051d565b9093915060005260209081600020936000915b818310610ba157505061054b93508201013880610b68565b85548884018501529485019487945091830191610b89565b91505061054b94506020925060ff191682840152151560051b8201013880610b68565b503461000e57602036600319011261000e57600435600052601160205261040d6105eb6040600020610b38565b503461000e57610c8f610c336020610c2036610933565b8160405193828580945193849201610359565b8101600f815203019020610c4681610b38565b90610cb0600182015491610ca2610c5f60028301610b38565b93610c6c60038401610b38565b92600460018060a01b03910154169460405197889760a0895260a089019061037c565b916020880152868203604088015261037c565b90848203606086015261037c565b9060808301520390f35b503461000e57602036600319011261000e5760206104966004356117c3565b503461000e57600036600319011261000e57610cf3612913565b5033600052600e60205261040d610d15610d106040600020610b38565b610985565b60405190610848826104bf565b50606036600319011261000e576001600160401b0360043581811161000e57610d4f903690600401610742565b9160243590811161000e57610d68903690600401610742565b6001600160a01b03610d7a8585611ff8565b546001600160a01b03161615610d8f90612011565b610d998484611fb0565b610da290612053565b3360009081526010602052604090205460ff1615610dbf9061208e565b600b54341015610dce906120d4565b610dd9604435612630565b610de290612666565b918193610ded610a18565b6040519485809260208201610e03908c8c611fea565b601760f91b8152600101610e17908861096e565b601760f91b8152600101610e2a9161096e565b0390601f19918281018452610e3f908461051d565b604051809160208201610e5190612118565b610e5a9161096e565b610e639061218c565b610e6d908561096e565b610e76906121ed565b038281018252610e86908261051d565b610e91368b8b6108fc565b610e9a90612b1a565b610ea390611f08565b90610ead90612a1d565b604051693d913730b6b2911d101160b11b6020820152918291610ed3602a84018761096e565b7f222c20226465736372697074696f6e223a2022412073747564656e742061742081527f486f677761727473222c2022696d616765223a2022646174613a696d6167652f60208201526e1cdd99cade1b5b0ed8985cd94d8d0b608a1b6040820152604f01610f409161096e565b6b1116113632b733ba34111d1160a11b8152600c01610f5e9161096e565b61227d60f01b8152600201038281018252610f79908261051d565b610f8290612a1d565b6040517f646174613a6170706c69636174696f6e2f6a736f6e3b6261736536342c000000602082015291908290603d8201610fbc9161096e565b039081018252610fcc908261051d565b60075490610fda82336123b8565b610fe490826124f3565b33610fee836109ab565b80546001600160a01b0319166001600160a01b03909216919091179055336000908152600e6020526040902082611024916122a2565b336000908152601060205260409020805460ff19166001179055611052906000526011602052604060002090565b9061105c916122a2565b61106593612869565b611073600160075401600755565b6040519182913394611085928461237e565b037f78fc4bd5049206a33e22e356ba7ae0cff1f598eef8b69790fde01de4562a95da91a2005b503461000e57602036600319011261000e576001600160a01b036110cd6105ff565b1680156110f657600052600360205261040d604060002054604051918291829190602083019252565b60405162461bcd60e51b815260206004820152602960248201527f4552433732313a2061646472657373207a65726f206973206e6f7420612076616044820152683634b21037bbb732b960b91b6064820152608490fd5b6040519061115a826104e7565b600982526839b63cba3432b934b760b91b6020830152565b503461000e57600036600319011261000e5761040d6105eb61114d565b503461000e57602036600319011261000e576001600160a01b036111b16105ff565b16600052600e60205261040d6105eb6040600020610b38565b604051906111d7826104e7565b60078252662346463843384360c81b6020830152565b503461000e57600036600319011261000e5761040d6105eb6111ca565b60405190611217826104e7565b6009825268726176656e636c617760b81b6020830152565b503461000e57600036600319011261000e5761040d6105eb61120a565b503461000e57600036600319011261000e57602060018060a01b03600c54163314604051908152f35b503461000e576000806003193601126104745760405181600180549061129a82610afe565b8085529181811690811561044c57506001146112c05761040d846104018188038261051d565b80945082526020938483205b8284106112e8575050508161040d9361040192820101936103f1565b80548585018701529285019281016112cc565b503461000e57602061131561130f3661076f565b90611fb0565b6040519015158152f35b503461000e57604036600319011261000e576113396105ff565b602435801515810361000e576001600160a01b038216913383146113c757816113846113959233600052600560205260406000209060018060a01b0316600052602052604060002090565b9060ff801983541691151516179055565b604051901515815233907f17307eab39ab6107e8899845ad3d59bd9653f200f220920489ca2b5937696c3190602090a3005b60405162461bcd60e51b815260206004820152601960248201527822a9219b99189d1030b8383937bb32903a379031b0b63632b960391b6044820152606490fd5b503461000e57602036600319011261000e576001600160a01b0361142a6105ff565b166000526010602052602060ff604060002054166040519015158152f35b60405190611455826104e7565b60078252662346444646384360c81b6020830152565b503461000e57600036600319011261000e5761040d6105eb611448565b503461000e57608036600319011261000e576114a26105ff565b6114aa610615565b606435916001600160401b03831161000e573660238401121561000e576114de6106839336906024816004013591016108fc565b91604435916118f9565b503461000e57602061150b6114fc3661076f565b6001600160a01b039291611ff8565b5416604051908152f35b503461000e57602036600319011261000e5760043560008181526002602052604090205461154d906001600160a01b0316151561177c565b600052600660205261040d6115656040600020610b38565b600060405161157381610502565b5260405191829160208352602083019061037c565b60405190611595826104e7565b6007825266119c21a120a32360c91b6020830152565b503461000e57600036600319011261000e5761040d6105eb611588565b503461000e57604036600319011261000e57602060ff61161a6115e96105ff565b6115f1610615565b6001600160a01b0391821660009081526005865260408082209290931681526020919091522090565b54166040519015158152f35b60405190611633826104e7565b600a82526933b93cb33334b73237b960b11b6020830152565b503461000e57600036600319011261000e5761040d6105eb611626565b602080820190808352835180925260408301928160408460051b8301019501936000915b84831061169d5750505050505090565b90919293949584806116bb600193603f198682030187528a5161037c565b980193019301919493929061168d565b503461000e57600036600319011261000e576007546116e981612940565b906116f7604051928361051d565b808252601f1961170682612940565b0160005b81811061176b57505060005b81811061172b576040518061040d8582611669565b8061174b611746611766936000526011602052604060002090565b610b38565b6117558286612966565b526117608185612966565b50611e88565b611716565b80606060208093870101520161170a565b1561178357565b60405162461bcd60e51b8152602060048201526018602482015277115490cdcc8c4e881a5b9d985b1a59081d1bdad95b88125160421b6044820152606490fd5b6000908152600260205260409020546001600160a01b03166103b281151561177c565b156117ed57565b60405162461bcd60e51b815260206004820152603e60248201527f4552433732313a20617070726f76652063616c6c6572206973206e6f7420746f60448201527f6b656e206f776e6572206e6f7220617070726f76656420666f7220616c6c00006064820152608490fd5b60008181526002602052604090205461187b906001600160a01b0316151561177c565b6000908152600460205260409020546001600160a01b031690565b1561189d57565b60405162461bcd60e51b815260206004820152602e60248201527f4552433732313a2063616c6c6572206973206e6f7420746f6b656e206f776e6560448201526d1c881b9bdc88185c1c1c9bdd995960921b6064820152608490fd5b9161054b9391611920936119106108f2843361199c565b61191b838383611afc565b611e4c565b611978565b60809060208152603260208201527f4552433732313a207472616e7366657220746f206e6f6e20455243373231526560408201527131b2b4bb32b91034b6b83632b6b2b73a32b960711b60608201520190565b1561197f57565b60405162461bcd60e51b81528061199860048201611925565b0390fd5b6001600160a01b03806119ae846117c3565b1692818316928484149485156119e4575b505083156119ce575b50505090565b6119da91929350611858565b16143880806119c8565b60009081526005602090815260408083206001600160a01b03949094168352929052205460ff16935038806119bf565b15611a1b57565b60405162461bcd60e51b8152602060048201526024808201527f4552433732313a207472616e7366657220746f20746865207a65726f206164646044820152637265737360e01b6064820152608490fd5b50634e487b7160e01b600052601160045260246000fd5b600019810191908211611a9257565b61054b611a6c565b9060018201809211611a9257565b9060028201809211611a9257565b9060208201809211611a9257565b9060068201809211611a9257565b9060058201809211611a9257565b9060048201809211611a9257565b9060038201809211611a9257565b90611b06836117c3565b6001600160a01b038381169290918216839003611bdf57611b55611bb892821694611b32861515611a14565b611b3b87611c32565b6001600160a01b0316600090815260036020526040902090565b611b5f8154611a83565b90556001600160a01b0381166000908152600360205260409020611b838154611a9a565b9055611b99856000526002602052604060002090565b80546001600160a01b0319166001600160a01b03909216919091179055565b7fddf252ad1be2c89b69c2b068fc378daa952ba7f163c4a11628f55a4df523b3ef600080a4565b60405162461bcd60e51b815260206004820152602560248201527f4552433732313a207472616e736665722066726f6d20696e636f72726563742060448201526437bbb732b960d91b6064820152608490fd5b600081815260046020526040812080546001600160a01b03191690556001600160a01b03611c5f836117c3565b167f8c5be1e5ebec7d5bd14f71427d1e84f3dd0314c0f7b2291e5b200ac8c7c3b9258280a4565b600082815260046020526040902080546001600160a01b0319166001600160a01b0383161790556001600160a01b0380611cbf846117c3565b169116907f8c5be1e5ebec7d5bd14f71427d1e84f3dd0314c0f7b2291e5b200ac8c7c3b925600080a4565b9081602091031261000e57516103b2816102d8565b6103b2939260809260018060a01b03168252600060208301526040820152816060820152019061037c565b6001600160a01b0391821681529116602082015260408101919091526080606082018190526103b29291019061037c565b3d15611d86573d90611d6c8261054d565b91611d7a604051938461051d565b82523d6000602084013e565b606090565b909190803b15611e4457611dbd602091600093604051948580948193630a85bd0160e11b998a84523360048501611cff565b03926001600160a01b03165af160009181611e14575b50611e0657611de0611d5b565b80519081611e015760405162461bcd60e51b81528061199860048201611925565b602001fd5b6001600160e01b0319161490565b611e3691925060203d8111611e3d575b611e2e818361051d565b810190611cea565b9038611dd3565b503d611e24565b505050600190565b92909190823b15611e7f57611dbd926020926000604051809681958294630a85bd0160e11b9a8b85523360048601611d2a565b50505050600190565b6001906000198114611e98570190565b610981611a6c565b90611eaa8261054d565b611eb7604051918261051d565b8281528092611ec8601f199161054d565b0190602036910137565b50634e487b7160e01b600052603260045260246000fd5b906020918051821015611efb57010190565b611f03611ed2565b010190565b8015611f92576000818181805b611f7a5750611f2381611ea0565b935b611f2f5750505090565b611f3890611a83565b90600a9060308282068101809111611f6d575b60f81b6001600160f81b031916841a611f648487611ee9565b53049081611f25565b611f75611a6c565b611f4b565b9150611f87600a91611e88565b910480849291611f15565b50604051611f9f816104e7565b60018152600360fc1b602082015290565b6003611fc5611fc03685856108fc565b612b1a565b10159182611fd257505090565b60149250611fe591611fc09136916108fc565b111590565b908092918237016000815290565b6020908260405193849283378101600d81520301902090565b1561201857565b60405162461bcd60e51b81526020600482015260136024820152724e616d6520616c72656164792065786973747360681b6044820152606490fd5b1561205a57565b60405162461bcd60e51b815260206004820152600c60248201526b496e76616c6964206e616d6560a01b6044820152606490fd5b1561209557565b60405162461bcd60e51b81526020600482015260176024820152761059191c995cdcc8185b1c9958591e48185c1c1b1a5959604a1b6044820152606490fd5b156120db57565b60405162461bcd60e51b8152602060048201526015602482015274139bdd08195b9bdd59da0813585d1a58c81c185a59605a1b6044820152606490fd5b6008546000929161212882610afe565b91600190818116908115612179575060011461214357505050565b9091929350600860005260209081600020906000915b85831061216857505050500190565b805485840152918301918101612159565b60ff191683525050811515909102019150565b6009546000929161219c82610afe565b9160019081811690811561217957506001146121b757505050565b9091929350600960005260209081600020906000915b8583106121dc57505050500190565b8054858401529183019181016121cd565b600a54600092916121fd82610afe565b91600190818116908115612179575060011461221857505050565b9091929350600a60005260209081600020906000915b85831061223d57505050500190565b80548584015291830191810161222e565b90601f811161225c57505050565b600091825260208220906020601f850160051c83019410612298575b601f0160051c01915b82811061228d57505050565b818155600101612281565b9092508290612278565b91909182516001600160401b038111612371575b6122ca816122c48454610afe565b8461224e565b602080601f83116001146123065750819293946000926122fb575b50508160011b916000199060031b1c1916179055565b0151905038806122e5565b90601f1983169561231c85600052602060002090565b926000905b88821061235957505083600195969710612340575b505050811b019055565b015160001960f88460031b161c19169055388080612336565b80600185968294968601518155019501930190612321565b6123796104a8565b6122b6565b826103b2949360609360408452816040850152848401376000838284010152601f801991011681019060208382840301910152019061037c565b906040516123c581610502565b600081526001600160a01b0383169182156124af576000818152600260205260409020546001600160a01b031661246a5783816119209461241b61054b9760018060a01b03166000526003602052604060002090565b6124258154611a9a565b905561243f83611b99846000526002602052604060002090565b60007fddf252ad1be2c89b69c2b068fc378daa952ba7f163c4a11628f55a4df523b3ef8180a4611d8b565b60405162461bcd60e51b815260206004820152601c60248201527f4552433732313a20746f6b656e20616c7265616479206d696e746564000000006044820152606490fd5b606460405162461bcd60e51b815260206004820152602060248201527f4552433732313a206d696e7420746f20746865207a65726f20616464726573736044820152fd5b6000818152600260205260409020549192916001600160a01b0316156125d4576000526020600681526040600020908351906001600160401b0382116125c7575b612548826125428554610afe565b8561224e565b80601f83116001146125765750819293946000926122fb5750508160011b916000199060031b1c1916179055565b90601f1983169561258c85600052602060002090565b926000905b8882106125af5750508360019596971061234057505050811b019055565b80600185968294968601518155019501930190612591565b6125cf6104a8565b612534565b60405162461bcd60e51b815260206004820152602e60248201527f45524337323155524953746f726167653a2055524920736574206f66206e6f6e60448201526d32bc34b9ba32b73a103a37b5b2b760911b6064820152608490fd5b606490604051602081019142835260408201524460608201523360601b60808201526074815261265f816104bf565b5190200690565b6060908190601981116126875750505061267e611626565b906103b26111ca565b601a81101580612710575b156126ab575050506126a261114d565b906103b2610702565b603381101580612705575b156126cf575050506126c66105a8565b906103b2611448565b604c8194929394101590816126f9575b501561054b579150506126f061120a565b906103b2611588565b606491501115386126df565b50604b8111156126b6565b506032811115612692565b91909182519283516001600160401b03811161285c575b612740816125428554610afe565b6020948590601f83116001146127e2579261054b9596836127b6946080946004976000926127d7575b50508160011b916000199060031b1c19161786555b81015160018601556127976040820151600287016122a2565b6127a86060820151600387016122a2565b01516001600160a01b031690565b910180546001600160a01b0319166001600160a01b03909216919091179055565b015190503880612769565b90601f198316916127f886600052602060002090565b9260005b8181106128455750846080946004979461054b9a9b946127b6986001951061282c575b505050811b01865561277e565b015160001960f88460031b161c1916905538808061281f565b9293896001819287860151815501950193016127fc565b6128646104a8565b612732565b9192916001600160a01b0361287d826109ab565b541633036128c3576128ae6128be9261054b9561289861053e565b95848752426020880152604087015236916108fc565b6060840152336080840152610985565b61271b565b60405162461bcd60e51b815260206004820152602260248201527f4e6f207065726d697373696f6e20746f206d6f6469667920746865207265636f6044820152611c9960f21b6064820152608490fd5b60405190612920826104bf565b600060808360608152826020820152606060408201526060808201520152565b6020906001600160401b038111612959575b60051b0190565b6129616104a8565b612952565b602091815181101561297b575b60051b010190565b612983611ed2565b612973565b600281901b91906001600160fe1b03811603611a9257565b60405190606082018281106001600160401b03821117612a10575b604052604082527f6768696a6b6c6d6e6f707172737475767778797a303132333435363738392b2f6040837f4142434445464748494a4b4c4d4e4f505152535455565758595a61626364656660208201520152565b612a186104a8565b6129bb565b8051908115612b1057612a41612a3c612a3584611aa8565b6003900490565b612988565b91612a53612a4e84611ab6565b611ea0565b90612a5c6129a0565b92600092602081015b8484811015612ac95790600491600380910196850101516001603f9080828460121c168b010151918a60ff9384848488600c1c1684010151168585600894868a60061c160101511691831b01821b01901b93168a010151160160e01b815201612a65565b509350949350506003900680600114612afc57600214612aea575b50815290565b603d60f81b6000199091015238612ae4565b50613d3d60f01b6001199091015238612ae4565b50506103b2610577565b6000815191815b838110612b2f575050905090565b80612b5e612b51612b43612b7a9486611ee9565b516001600160f81b03191690565b6001600160f81b03191690565b600160ff1b811015612b805750612b7490611a9a565b92611e88565b91612b21565b600760fd1b811015612b965750612b7490611aa8565b600f60fc1b811015612bac5750612b7490611aee565b601f60fb1b811015612bc25750612b7490611ae0565b603f60fa1b1115612bd657612b7490611ad2565b612b7490611ac456fea26469706673582212208e812742d8e3750196a6ba5680ac67f29ac539050d4934356cba5156153fa22064736f6c634300081100333d22353422206865696768743d223438222066696c6c3d2275726c2823706174",
  "linkReferences": {},
  "deployedLinkReferences": {}
}